:020000040800F2
:10000000B00400209D010008DB100008D70F000895
:10001000D9100008F10200080114000800000000D7
:10002000000000000000000000000000CD110008EA
:10003000F302000800000000DD100008CF110008E6
:10004000B7010008B7010008B7010008B7010008B0
:10005000B7010008B7010008B7010008B7010008A0
:10006000B7010008B7010008B7010008B701000890
:10007000B7010008B7010008B7010008B701000880
:10008000B7010008B7010008B7010008B701000870
:10009000B7010008B7010008B7010008B701000860
:1000A000B7010008B7010008B7010008B701000850
:1000B000B7010008B7010008B7010008B701000840
:1000C000B7010008B7010008B7010008B701000830
:1000D000B7010008B7010008B7010008B701000820
:1000E000B7010008B7010008B7010008B701000810
:1000F000B7010008B7010008B7010008B701000800
:10010000B7010008B7010008B7010008B7010008EF
:10011000B7010008B7010008B7010008B7010008DF
:10012000B7010008B7010008B7010008B7010008CF
:10013000B70100080000000000000000B70100083F
:10014000B7010008B7010008B7010008B7010008AF
:10015000B7010008B7010008B7010008B70100089F
:10016000B7010008B7010008B7010008B70100088F
:10017000B7010008B70100080000000000000000FF
:10018000B7010008B7010008DFF80CD000F07AF8DA
:100190000048004741140008B0040020064880478A
:1001A00006480047FEE7FEE7FEE7FEE7FEE7FEE75C
:1001B000FEE7FEE7FEE7FEE75912000889010008A6
:1001C0002DE9F05F0546002092469B46884606468C
:1001D000814640241BE0284641464746224600F01F
:1001E00041F853465A46C01A914110D31146184659
:1001F000224600F028F82D1A67EB01084F462246E8
:100200000120002100F01FF817EB00094E41201ECD
:10021000A4F10104DFDC484631462A464346BDE8E6
:10022000F09FD2B201E000F8012B491EFBD27047CB
:100230000022F6E710B513460A4604461946FFF7B2
:10024000F0FF204610BD202A04DB203A00FA02F11C
:10025000002070479140C2F1200320FA03F31943B4
:1002600090407047202A04DB203A21FA02F0002156
:10027000704721FA02F3D040C2F1200291400843B6
:1002800019467047064C074D06E0E06840F0010350
:1002900094E8070098471034AC42F6D3FFF778FF94
:1002A00050150008701500087CB500200D4D024661
:1002B0004FF4006401902146284600F00BF94FF4FA
:1002C0007A700090012301AA0749084800F0BAFC9F
:1002D00001222146284600F0FDF80198C0F30D00E8
:1002E00001907CBD000402400000002018000020A6
:1002F000FEE770477047000070B5044600F0F0F864
:100300000546601C02D004480078044400F0E8F878
:10031000401BA042FAD370BD080000202DE9F84F21
:1003200000224FF0010803254FF00F0E0B6808FA6A
:1003300002F42340A3426ED14E68012E05D0022E56
:1003400003D0112E01D0122E12D186684FEA420C32
:1003500005FA0CF7BE43CF6807FA0CF737438760FE
:100360004668A6430C79C4F30014944034434460B7
:10037000C668570005FA07FC8C6826EA0C06BC40E4
:100380003443C4604C68022C01D0122C13D1D40821
:1003900000EB8404A346D4F8209054074FEAD46AB3
:1003A0000EFA0AF629EA06090E6906FA0AF646EA7C
:1003B0000906CBF8206006680C7926EA0C0604F0E2
:1003C0000304BC40344304604C68E40065D5364CFB
:1003D000266846F480462660246822F0030604F46A
:1003E00080440094314C3444A446D4F8084896071D
:1003F000370F0EFA07F6B4432D4EB04201D1002656
:1004000024E02C4EB04201D101261FE02A4EB0421A
:1004100002D102261AE040E0284EB04201D1032664
:1004200014E0274EB04201D104260FE0254EB04221
:1004300001D105260AE0244EB04201D1062605E08E
:10044000224EB04201D1072600E00826BE402643D6
:10045000CCF808681E4E34684F689C43FF0300D5F3
:100460001C4334601A4C241D26684F689E43BF030A
:1004700000D51E432660164E083634684F689C43EC
:10048000FF0200D51C433460114E0C3634684F68AF
:100490009C43BF0200D51C433460521C102AFFF459
:1004A00045AFBDE8F88F00004438024000300140FD
:1004B000000002400004024000080240000C02401C
:1004C000001002400014024000180240001C0240CC
:1004D000003C01400AB1816170470904FBE700005C
:1004E00001488068704700000800002002488168C9
:1004F0000278114481607047080000200B4810B555
:10050000016841F400710160016841F4806101609B
:10051000016841F480710160032000F061F800205F
:1005200000F006F800F024F8002010BD003C024066
:1005300070B50D4D04464FF47A712878B1FBF0F098
:100540000A490968B1FBF0F000F06DFC48B9102CC5
:1005500007D200222146501E00F022F800206C60D5
:1005600070BD012070BD00000800002014000020B4
:100570000A4808B5016841F480410160006800F450
:10058000804000900548001F016841F080510160E3
:10059000006800F08050009008BD00004438024020
:1005A000F0B40E4B1B680C46C3F30223C3F10705DE
:1005B000042D00D90425191D072901D2002300E0CC
:1005C000DB1E012606FA05F1491E214099409E4096
:1005D000761E16403143F0BC00F013BF0CED00E076
:1005E000064900F0070208684FF6FF03184040EA8A
:1005F0000220034A10430860704700000CED00E041
:100600000000FA052DE9F0470E46050065D0DFF839
:100610001481D8F80000F7B200F00F00B04207D202
:1006200088F80070D8F8000000F00F00B04254D1F4
:1006300028683D4C810712D5400703D5206840F457
:10064000E05020602878000703D5206840F460401F
:1006500020602068A96820F0F00008432060287816
:10066000C0072DD0304968680839012812D0022807
:1006700013D0032811D00968890700292DDA2168D1
:1006800021F0030101432160FFF72AFF814641F277
:10069000883A0EE009688903EFE709688901ECE709
:1006A000FFF71EFFA0EB0901514502D90320BDE869
:1006B000F0872068696800F00C00B0EB810FEFD183
:1006C000D8F80010404601F00F01B14207D9077079
:1006D000006800F00F00B04201D00120E7E7287861
:1006E000400705D52068E96820F4E0500843206001
:1006F0002878000706D52068296920F4604040EA80
:10070000C100206000F038F82168084AC1F30311E5
:10071000515CC8400649086006480068FFF708FFBA
:100720000020C4E7003C02400838024036150008AB
:10073000140000200C0000200448054900680968E6
:10074000044AC1F38221515CC84070471400002064
:100750000838024046150008044805490068096841
:10076000044AC1F34231515CC84070471400002074
:100770000838024046150008154810B5006810F00A
:100780000C02144813D04110042A0FD0082A0ED1AD
:100790000F4C241F2268236802F03F025B0207D53A
:1007A0002068C0F38810A0FB010106E0084610BDD8
:1007B0002168C1F38811A1FB00010023FFF700FDB0
:1007C0002168C1F30141491C4900B0FBF1F010BDA3
:1007D000083802400024F4002DE9F84F040076D0D8
:1007E0002078DFF838A3CE4DC00749D0DAF80010E2
:1007F0005046C1F38101012908D00068C0F381008F
:1008000002280AD1281D0068400206D52868800306
:1008100036D560680028E2D032E06068B0F5803FED
:1008200010D0B0F5A02F286810D020F480302860B8
:10083000286820F4802028606068A0B1FFF750FE8F
:1008400006460CE0286840F48030F4E740F480204D
:100850002860F7E7FFF744FE801B642873D82868F8
:100860008003F7D50CE0FFF73BFE064605E000BF2E
:10087000FFF736FE801B6428F0D828688003F7D481
:100880002078DFF8A08280074FF000093ED5DAF823
:100890000010504611F00C0F09D00068C0F3810021
:1008A00002280BD19D48001F0068400206D428682A
:1008B000800715D5E068012809D111E0E068B8B1DA
:1008C0000120C8F80000FFF70BFE064605E020E116
:1008D000FFF706FE801B0228C0D828688007F7D5DE
:1008E0002868216920F0F80040EAC10028600DE086
:1008F000C8F80090FFF7F4FD064604E0FFF7F0FDAE
:10090000801B02281FD828688007F7D420780007AA
:1009100022D5824E844861696C3671B10121016033
:10092000FFF7DEFD074604E0FFF7DAFDC01B0228F3
:1009300009D830688007F7D50EE0C0F80090FFF7BF
:10094000CFFD074605E082E0FFF7CAFDC01B022885
:100950007DD830688007F7D42078400768D5DFF865
:10096000BCB100270BF1380BDBF80000C0000BD442
:10097000DBF8001041F08051CBF80010DBF80000EC
:10098000012700F080500090684E3068C00510D4F8
:10099000306840F480703060FFF7A2FD009005E001
:1009A000FFF79EFD0099401A022850D83068C00514
:1009B000F6D55A4EA068683601280FD00528306851
:1009C00010D020F001003060306820F0040030606A
:1009D000A068B8B1FFF784FD00900FE0306840F0E8
:1009E0000100F4E740F004003060F7E7FFF778FD1E
:1009F0000099411A41F28830814266D830688007F8
:100A0000F4D50EE0FFF76CFD009007E0FFF768FDFE
:100A10000099411A41F28830814256D830688007E7
:100A2000F4D42FB1DBF8001021F08051CBF8001086
:100A3000A069D0B3DAF800205146C2F38102022A3D
:100A40004AD00228484607D0C8F8600000E03CE0E1
:100A5000FFF746FD04463BE04746C8F86000FFF755
:100A60003FFD064605E000BFFFF73AFD801B022868
:100A70002BD828688001F7D4D4E907010843A16A7C
:100A80002B4A490802EB0141626A41EA821108439C
:100A900094F82C1040EA01612048001F01600120F9
:100AA0003866FFF71DFD044605E034E0FFF718FD4A
:100AB000001B022809D828688001F7D52BE000BF69
:100AC000FFF70EFD001B022802D90320BDE8F88FB6
:100AD00028688001F4D41EE00128F7D00868E26994
:100AE00000F48001914214D1226A00F03F0191424A
:100AF0000FD147F6C071626A0140914209D1A26AE2
:100B000000F44031914204D1E16A00F07060884203
:100B100001D00120DAE70020D8E7000008380240C1
:100B20000038024000004742800E474200700040FB
:100B30000000FFFF70B5040005D00025A56294F801
:100B4000510010B106E0012070BD84F850502046DD
:100B500000F030F8022084F851002068016821F08C
:100B600040010160D4E901010843D4E903121143B3
:100B7000084361690843218B01F400710843E1696E
:100B80000843216A0843A16A084321680860A069F4
:100B9000042101EA1040616A084321684860206826
:100BA000C16921F40061C1616565012084F85100CB
:100BB000002070BDF0B587B0044614216846FFF7E9
:100BC00037FB1C492068884232D11B480024016849
:100BD00041F480410160006800F4804005901648AF
:100BE0001038016841F004010160016801F004015E
:100BF0000591016841F0020101600068022500F0E2
:100C0000020005900C20CDE9000502AA0326052765
:100C100082E8D00069460948FFF780FB6802CDE909
:100C2000000502AA694682E8D0000548FFF776FB76
:100C300007B0F0BD003800404038024000080240D4
:100C4000000402402DE9F84F044690F850000027B8
:100C50000A9E1D4692468B464FF0010901280ED090
:100C6000012084F85000FFF73BFC804694F85100C7
:100C7000616801280CD0B1F5827F07D102E0022023
:100C8000BDE8F88FA16809B9042801D00227C2E0A5
:100C9000BBF1000F27D0BAF1000F24D01DB394F898
:100CA0005100042802D0052084F85100002060651E
:100CB000C4F838A0E587A587C4F830B0E586A586D6
:100CC0002064606420680168490603D4016841F02B
:100CD00040010160E068B0F5006F606805D0E8B3DE
:100CE000012D46D07FE0012795E008B1012D39D1D3
:100CF000206B21680088C860206B801C2063E08E18
:100D0000401EE0862EE02068816889070FD5E18EBD
:100D100069B1B9F1010F0AD1216B0988C160206B5B
:100D2000801C2063E08E401EE0864FF000092068A2
:100D30008168C9070CD0E18F51B1C068A16B0880F0
:100D4000A06B801CA063E08F401EE0874FF001097C
:100D5000FFF7C6FBA0EB0800B04200E009E001D3BA
:100D6000701C50D1E08E0028CDD1E08F0028CAD170
:100D70003FE0206B216800780873206B401C2063E3
:100D8000E08E401EE0862EE02068816889070FD53E
:100D9000E18E69B1B9F1010F0AD1216B09780173B4
:100DA000206B401C2063E08E401EE0864FF000095F
:100DB00020688168C9070CD0E18F51B1C068A16B70
:100DC0000870A06B401CA063E08F401EE0874FF0CE
:100DD0000109FFF785FBA0EB0800B04202D3701CAD
:100DE00001D010E07EB1E08E0028CDD1E08F002848
:100DF000CAD142463146204600F072F928B1012797
:100E00002020606507E0032705E0A06818B9206886
:100E1000C16880680090012084F85100002084F8A7
:100E2000500038462CE710B5401EB0F1807F01D34A
:100E3000012010BD4FF0E02460610F21601700F029
:100E4000E0FA0020A06107202061002010BD70B5ED
:100E5000040004D094F83900002510B106E0012008
:100E600070BD84F83850204600F022F8242084F821
:100E700039002068C16821F40051C160204600F0AB
:100E8000F9F92068016921F4904101612068416904
:100E900021F02A0141612068C16841F40051C1601C
:100EA000E563202084F8390084F83A00002070BD02
:100EB00010B586B0044614216846FFF7B9F9144905
:100EC0002068884221D11348016841F01001016077
:100ED000006800F0100005900E481438016841F0D9
:100EE000010101600068694600F0010005904FF4BF
:100EF000C060009002200190012002900320039026
:100F0000072004900448FFF709FA06B010BD00005E
:100F10000010014044380240000002402DE9F8432F
:100F2000044690F839001F4616460D46202850D139
:100F3000B5B1AEB194F8380001284AD0012084F848
:100F400038004FF00008C4F83C80212084F83900B4
:100F5000FFF7C6FAA6848146E68484F8388026E046
:100F60000120BDE8F883E08C401EE084A0684B4679
:100F7000B0F5805F4FF000024FF0800120460097EF
:100F800003D000F00BFAE8B90DE000F007FAC8B999
:100F900028882168C0F308004860206908B16D1CEA
:100FA00005E0AD1C03E0216815F8010B4860E08CFA
:100FB0000028D8D14B46002240212046009700F05F
:100FC000EDF908B10320CCE7202084F83900002097
:100FD000C7E70220C5E7FEE770B586B01421684672
:100FE000FFF726F91A480025016841F080010160E9
:100FF000016801F080010591016841F00401016080
:10100000016801F004010591016841F002010160ED
:10101000016801F002010591016841F001010160E0
:1010200000680C4E00F001004FF4006405900022AF
:1010300021463046FFF74EFA0120CDE9004002205C
:10104000CDE9025069463046FFF768F906B070BD39
:101050003038024000040240104810B50E490160CB
:101060004FF48271416000214FF40062C0E9021226
:101070000122C0E904125202C0E906210162416264
:1010800081620A21C162FFF755FD002803D0BDE847
:101090001040FFF72FB910BD0038004018000020A5
:1010A0000C4810B50A4901604FF4E131416000215C
:1010B00081600C22C160C0E904128161C161FFF747
:1010C000C6FE002803D0BDE81040FFF713B910BDDD
:1010D0000010014070000020FEE7704770470000DC
:1010E00038B504461248134B0068B0FBF3F04FF4D8
:1010F0007A73584300906068B0F5827F0DD10B463B
:10110000009200228021204600F016F870B1606D38
:1011100040F020006065032038BD009830B1401ECB
:10112000009020688068C0430006F6D5002038BDD6
:101130001400002000366E012DE9F0411D461746CF
:101140000E460446DDF8188008E0681C06D0FFF75C
:10115000C7F9A0EB0800A8420BD255B120688068FF
:1011600036EA000030D00020B842EED10020BDE8C1
:10117000F0812068416821F0E00141606068B0F5CD
:10118000827F0BD1A068B0F5004F02D0B0F5806F20
:1011900004D12068016821F040010160A06AB0F527
:1011A000005F09D12068016821F4005101602068C6
:1011B000016841F400510160012084F851000020D1
:1011C00084F850000320D2E70120CDE77047FFF7F5
:1011D0008DB9000030B593B030216846FFF728F88C
:1011E00014210CA8FFF724F819480025016841F0E4
:1011F00080510160006800F080501190154801682E
:1012000041F4804101600068022400F480401190A4
:1012100001200090000401908001CDE9064008AA59
:101220000420A82182E813000B906846FFF7D4FA47
:101230000CA90F2081E831004FF4A0500F90E0027C
:10124000109005210CA8FFF7DDF913B030BD0000A8
:1012500040380240007000400548016841F47001C8
:10126000016003494FF0006080390860704700005A
:1012700088ED00E02DE9F041044600680169E2686C
:1012800021F44051114301612169A068E2690843DA
:101290006169114308432168CA6849F20C639A43A3
:1012A0000243CA6020684169A26921F44071114378
:1012B0004161E069192764253226B0F5004F354AAF
:1012C000354920684FF0000806D0884201D090428E
:1012D00036D1FFF741FA35E0884201D0904202D181
:1012E000FFF73AFA01E0FFF727FA61684A18A0FB16
:1012F000070148EB0803FEF763FF0146B0FBF5F07A
:101300000201B1FBF5F06FF01803584301EB8000C8
:1013100006EBC000B0FBF5F000F0F80002EB400275
:10132000B1FBF5F0584301EB800006EBC000B0FBC9
:10133000F5F000F00700216810448860BDE8F081F6
:10134000FFF7FAF961688B0F8A00A0FB0701FEF72F
:1013500037FF0146B0FBF5F06FF01802504301EB88
:10136000800006EB0010B0FBF5F000F0F002B1FBDE
:10137000F5F002EB0012B1FBF5F06FF018035843E3
:1013800001EB800006EB0010B0FBF5F000F00F0061
:10139000D1E7000000140140001001402DE9F041A8
:1013A000984617460E460446069D1DE0681C1BD055
:1013B0002DB1FFF795F8A0EB0800A84214D92068DA
:1013C000C16821F4D071C1602068416921F0010138
:1013D0004161202084F8390084F83A00002084F824
:1013E00038000320BDE8F0812068006836EA00007C
:1013F00004D00020B842D9D00020F3E70120F9E75B
:10140000FEE70907090E002804DB00F1E02080F860
:101410000014704700F00F0000F1E02080F8141D68
:10142000704702E008C8121F08C1002AFAD17047AD
:101430007047002001E001C1121F002AFBD1704754
:101440002DED028BFFF75AF8FFF7C4FEFFF7C4FD3E
:10145000FFF702FEFFF724FE9FED118ADFED118AF0
:10146000114C4FF6FF7500BFFEF71EFF00EE100A8D
:10147000B8EE400A20EE080AC0EE280ABCEEE00AE8
:1014800010EE100A80B200EBC00101EB001005EA7B
:101490008000208000F014F80A20FEF72DFFE3E71B
:1014A0000000B44300FC7F460400002001B5642323
:1014B000012269460148FFF731FD08BD7000002098
:1014C00070B5044642F21070B4FBF0F03030C0B298
:1014D000FFF7ECFF4FF47A70B4FBF0F00A25B0FB95
:1014E000F5F105FB11003030FFF7E0FF6420B4FB9D
:1014F000F0F0B0FBF5F105FB11003030FFF7D6FF3F
:101500002E20FFF7D3FFB4FBF5F0B0FBF5F105FBA0
:1015100011003030FFF7CAFFB4FBF5F005FB1040B7
:101520003030FFF7C3FF0D20FFF7C0FFBDE870406C
:101530000A20FFF7BBBF000000000000000001020E
:10154000030406070809000000000102030400006C
:101550007015000800000020180000002214000888
:1015600088150008180000209804000032140008B4
:10157000FFFF00000000000001000000100000005C
:08158000000000000024F4004B
:040000050800018965
:00000001FF
